{
  "contractName": "Voting",
  "abi": [
    {
      "inputs": [
        {
          "internalType": "uint256",
          "name": "",
          "type": "uint256"
        }
      ],
      "name": "candidates",
      "outputs": [
        {
          "internalType": "uint256",
          "name": "id",
          "type": "uint256"
        },
        {
          "internalType": "string",
          "name": "name",
          "type": "string"
        },
        {
          "internalType": "string",
          "name": "party",
          "type": "string"
        },
        {
          "internalType": "uint256",
          "name": "voteCount",
          "type": "uint256"
        }
      ],
      "stateMutability": "view",
      "type": "function",
      "constant": true
    },
    {
      "inputs": [],
      "name": "countCandidates",
      "outputs": [
        {
          "internalType": "uint256",
          "name": "",
          "type": "uint256"
        }
      ],
      "stateMutability": "view",
      "type": "function",
      "constant": true
    },
    {
      "inputs": [
        {
          "internalType": "address",
          "name": "",
          "type": "address"
        }
      ],
      "name": "voters",
      "outputs": [
        {
          "internalType": "bool",
          "name": "",
          "type": "bool"
        }
      ],
      "stateMutability": "view",
      "type": "function",
      "constant": true
    },
    {
      "inputs": [],
      "name": "votingEnd",
      "outputs": [
        {
          "internalType": "uint256",
          "name": "",
          "type": "uint256"
        }
      ],
      "stateMutability": "view",
      "type": "function",
      "constant": true
    },
    {
      "inputs": [],
      "name": "votingStart",
      "outputs": [
        {
          "internalType": "uint256",
          "name": "",
          "type": "uint256"
        }
      ],
      "stateMutability": "view",
      "type": "function",
      "constant": true
    },
    {
      "inputs": [
        {
          "internalType": "string",
          "name": "name",
          "type": "string"
        },
        {
          "internalType": "string",
          "name": "party",
          "type": "string"
        }
      ],
      "name": "addCandidate",
      "outputs": [
        {
          "internalType": "uint256",
          "name": "",
          "type": "uint256"
        }
      ],
      "stateMutability": "nonpayable",
      "type": "function"
    },
    {
      "inputs": [
        {
          "internalType": "uint256",
          "name": "candidateId",
          "type": "uint256"
        }
      ],
      "name": "vote",
      "outputs": [],
      "stateMutability": "nonpayable",
      "type": "function"
    },
    {
      "inputs": [],
      "name": "checkVote",
      "outputs": [
        {
          "internalType": "bool",
          "name": "",
          "type": "bool"
        }
      ],
      "stateMutability": "view",
      "type": "function",
      "constant": true
    },
    {
      "inputs": [],
      "name": "getCountCandidates",
      "outputs": [
        {
          "internalType": "uint256",
          "name": "",
          "type": "uint256"
        }
      ],
      "stateMutability": "view",
      "type": "function",
      "constant": true
    },
    {
      "inputs": [
        {
          "internalType": "uint256",
          "name": "candidateID",
          "type": "uint256"
        }
      ],
      "name": "getCandidate",
      "outputs": [
        {
          "internalType": "uint256",
          "name": "",
          "type": "uint256"
        },
        {
          "internalType": "string",
          "name": "",
          "type": "string"
        },
        {
          "internalType": "string",
          "name": "",
          "type": "string"
        },
        {
          "internalType": "uint256",
          "name": "",
          "type": "uint256"
        }
      ],
      "stateMutability": "view",
      "type": "function",
      "constant": true
    },
    {
      "inputs": [
        {
          "internalType": "uint256",
          "name": "_startDate",
          "type": "uint256"
        },
        {
          "internalType": "uint256",
          "name": "_endDate",
          "type": "uint256"
        }
      ],
      "name": "setDates",
      "outputs": [],
      "stateMutability": "nonpayable",
      "type": "function"
    },
    {
      "inputs": [],
      "name": "getDates",
      "outputs": [
        {
          "internalType": "uint256",
          "name": "",
          "type": "uint256"
        },
        {
          "internalType": "uint256",
          "name": "",
          "type": "uint256"
        }
      ],
      "stateMutability": "view",
      "type": "function",
      "constant": true
    }
  ],
  "bytecode": "0x608060405234801561001057600080fd5b5061141f806100206000396000f3fe608060405234801561001057600080fd5b50600436106100b45760003560e01c806335b8e8201161007157806335b8e8201461019357806385a38635146101c6578063a3ec138d146101e4578063b0417e9814610214578063b86eda9114610232578063dedf141e14610250576100b4565b80630121b93f146100b95780630a84a217146100d5578063101158af146100f3578063164418131461011157806326541b56146101305780633477ee2e14610160575b600080fd5b6100d360048036038101906100ce9190610955565b61026c565b005b6100dd610424565b6040516100ea9190610991565b60405180910390f35b6100fb61042e565b6040516101089190610991565b60405180910390f35b610119610434565b6040516101279291906109ac565b60405180910390f35b61014a60048036038101906101459190610b1b565b610445565b6040516101579190610991565b60405180910390f35b61017a60048036038101906101759190610955565b6104e5565b60405161018a9493929190610c12565b60405180910390f35b6101ad60048036038101906101a89190610955565b610625565b6040516101bd9493929190610c12565b60405180910390f35b6101ce610794565b6040516101db9190610991565b60405180910390f35b6101fe60048036038101906101f99190610cc3565b61079a565b60405161020b9190610d0b565b60405180910390f35b61021c6107ba565b6040516102299190610d0b565b60405180910390f35b61023a61080e565b6040516102479190610991565b60405180910390f35b61026a60048036038101906102659190610d26565b610814565b005b600160003373ffffffffffffffffffffffffffffffffffffffff1673ffffffffffffffffffffffffffffffffffffffff16815260200190815260200160002060009054906101000a900460ff16156102f9576040517f08c379a00000000000000000000000000000000000000000000000000000000081526004016102f090610db2565b60405180910390fd5b60008111801561030b57506002548111155b61034a576040517f08c379a000000000000000000000000000000000000000000000000000000000815260040161034190610e1e565b60405180910390fd5b600454421015801561035e57506003544211155b61039d576040517f08c379a000000000000000000000000000000000000000000000000000000000815260040161039490610e8a565b60405180910390fd5b60018060003373ffffffffffffffffffffffffffffffffffffffff1673ffffffffffffffffffffffffffffffffffffffff16815260200190815260200160002060006101000a81548160ff0219169083151502179055506001600080838152602001908152602001600020600301600082825461041a9190610ed9565b9250508190555050565b6000600254905090565b60045481565b600080600454600354915091509091565b60006002600081548092919061045a90610f0d565b919050555060405180608001604052806002548152602001848152602001838152602001600081525060008060025481526020019081526020016000206000820151816000015560208201518160010190816104b69190611161565b5060408201518160020190816104cc9190611161565b5060608201518160030155905050600254905092915050565b600060205280600052604060002060009150905080600001549080600101805461050e90610f84565b80601f016020809104026020016040519081016040528092919081815260200182805461053a90610f84565b80156105875780601f1061055c57610100808354040283529160200191610587565b820191906000526020600020905b81548152906001019060200180831161056a57829003601f168201915b50505050509080600201805461059c90610f84565b80601f01602080910402602001604051908101604052809291908181526020018280546105c890610f84565b80156106155780601f106105ea57610100808354040283529160200191610615565b820191906000526020600020905b8154815290600101906020018083116105f857829003601f168201915b5050505050908060030154905084565b60006060806000846000808781526020019081526020016000206001016000808881526020019081526020016000206002016000808981526020019081526020016000206003015482805461067990610f84565b80601f01602080910402602001604051908101604052809291908181526020018280546106a590610f84565b80156106f25780601f106106c7576101008083540402835291602001916106f2565b820191906000526020600020905b8154815290600101906020018083116106d557829003601f168201915b5050505050925081805461070590610f84565b80601f016020809104026020016040519081016040528092919081815260200182805461073190610f84565b801561077e5780601f106107535761010080835404028352916020019161077e565b820191906000526020600020905b81548152906001019060200180831161076157829003601f168201915b5050505050915093509350935093509193509193565b60035481565b60016020528060005260406000206000915054906101000a900460ff1681565b6000600160003373ffffffffffffffffffffffffffffffffffffffff1673ffffffffffffffffffffffffffffffffffffffff16815260200190815260200160002060009054906101000a900460ff16905090565b60025481565b600060035414801561082857506000600454145b610867576040517f08c379a000000000000000000000000000000000000000000000000000000000815260040161085e906112a5565b60405180910390fd5b42620f4240836108779190610ed9565b116108b7576040517f08c379a00000000000000000000000000000000000000000000000000000000081526004016108ae90611337565b60405180910390fd5b8181116108f9576040517f08c379a00000000000000000000000000000000000000000000000000000000081526004016108f0906113c9565b60405180910390fd5b81600481905550806003819055505050565b6000604051905090565b600080fd5b600080fd5b6000819050919050565b6109328161091f565b811461093d57600080fd5b50565b60008135905061094f81610929565b92915050565b60006020828403121561096b5761096a610915565b5b600061097984828501610940565b91505092915050565b61098b8161091f565b82525050565b60006020820190506109a66000830184610982565b92915050565b60006040820190506109c16000830185610982565b6109ce6020830184610982565b9392505050565b600080fd5b600080fd5b6000601f19601f8301169050919050565b7f4e487b7100000000000000000000000000000000000000000000000000000000600052604160045260246000fd5b610a28826109df565b810181811067ffffffffffffffff82111715610a4757610a466109f0565b5b80604052505050565b6000610a5a61090b565b9050610a668282610a1f565b919050565b600067ffffffffffffffff821115610a8657610a856109f0565b5b610a8f826109df565b9050602081019050919050565b82818337600083830152505050565b6000610abe610ab984610a6b565b610a50565b905082815260208101848484011115610ada57610ad96109da565b5b610ae5848285610a9c565b509392505050565b600082601f830112610b0257610b016109d5565b5b8135610b12848260208601610aab565b91505092915050565b60008060408385031215610b3257610b31610915565b5b600083013567ffffffffffffffff811115610b5057610b4f61091a565b5b610b5c85828601610aed565b925050602083013567ffffffffffffffff811115610b7d57610b7c61091a565b5b610b8985828601610aed565b9150509250929050565b600081519050919050565b600082825260208201905092915050565b60005b83811015610bcd578082015181840152602081019050610bb2565b60008484015250505050565b6000610be482610b93565b610bee8185610b9e565b9350610bfe818560208601610baf565b610c07816109df565b840191505092915050565b6000608082019050610c276000830187610982565b8181036020830152610c398186610bd9565b90508181036040830152610c4d8185610bd9565b9050610c5c6060830184610982565b95945050505050565b600073ffffffffffffffffffffffffffffffffffffffff82169050919050565b6000610c9082610c65565b9050919050565b610ca081610c85565b8114610cab57600080fd5b50565b600081359050610cbd81610c97565b92915050565b600060208284031215610cd957610cd8610915565b5b6000610ce784828501610cae565b91505092915050565b60008115159050919050565b610d0581610cf0565b82525050565b6000602082019050610d206000830184610cfc565b92915050565b60008060408385031215610d3d57610d3c610915565b5b6000610d4b85828601610940565b9250506020610d5c85828601610940565b9150509250929050565b7f596f75206861766520616c726561647920766f7465642e000000000000000000600082015250565b6000610d9c601783610b9e565b9150610da782610d66565b602082019050919050565b60006020820190508181036000830152610dcb81610d8f565b9050919050565b7f496e76616c69642063616e6469646174652049442e0000000000000000000000600082015250565b6000610e08601583610b9e565b9150610e1382610dd2565b602082019050919050565b60006020820190508181036000830152610e3781610dfb565b9050919050565b7f566f74696e67206973206e6f74206163746976652e0000000000000000000000600082015250565b6000610e74601583610b9e565b9150610e7f82610e3e565b602082019050919050565b60006020820190508181036000830152610ea381610e67565b9050919050565b7f4e487b7100000000000000000000000000000000000000000000000000000000600052601160045260246000fd5b6000610ee48261091f565b9150610eef8361091f565b9250828201905080821115610f0757610f06610eaa565b5b92915050565b6000610f188261091f565b91507fffffffffffffffffffffffffffffffffffffffffffffffffffffffffffffffff8203610f4a57610f49610eaa565b5b600182019050919050565b7f4e487b7100000000000000000000000000000000000000000000000000000000600052602260045260246000fd5b60006002820490506001821680610f9c57607f821691505b602082108103610faf57610fae610f55565b5b50919050565b60008190508160005260206000209050919050565b60006020601f8301049050919050565b600082821b905092915050565b6000600883026110177fffffffffffffffffffffffffffffffffffffffffffffffffffffffffffffffff82610fda565b6110218683610fda565b95508019841693508086168417925050509392505050565b6000819050919050565b600061105e6110596110548461091f565b611039565b61091f565b9050919050565b6000819050919050565b61107883611043565b61108c61108482611065565b848454610fe7565b825550505050565b600090565b6110a1611094565b6110ac81848461106f565b505050565b5b818110156110d0576110c5600082611099565b6001810190506110b2565b5050565b601f821115611115576110e681610fb5565b6110ef84610fca565b810160208510156110fe578190505b61111261110a85610fca565b8301826110b1565b50505b505050565b600082821c905092915050565b60006111386000198460080261111a565b1980831691505092915050565b60006111518383611127565b9150826002028217905092915050565b61116a82610b93565b67ffffffffffffffff811115611183576111826109f0565b5b61118d8254610f84565b6111988282856110d4565b600060209050601f8311600181146111cb57600084156111b9578287015190505b6111c38582611145565b86555061122b565b601f1984166111d986610fb5565b60005b82811015611201578489015182556001820191506020850194506020810190506111dc565b8683101561121e578489015161121a601f891682611127565b8355505b6001600288020188555050505b505050505050565b7f566f74696e67206461746573206861766520616c7265616479206265656e207360008201527f65742e0000000000000000000000000000000000000000000000000000000000602082015250565b600061128f602383610b9e565b915061129a82611233565b604082019050919050565b600060208201905081810360008301526112be81611282565b9050919050565b7f53746172742064617465206d75737420626520696e207468652066757475726560008201527f2e00000000000000000000000000000000000000000000000000000000000000602082015250565b6000611321602183610b9e565b915061132c826112c5565b604082019050919050565b6000602082019050818103600083015261135081611314565b9050919050565b7f456e642064617465206d7573742062652061667465722073746172742064617460008201527f652e000000000000000000000000000000000000000000000000000000000000602082015250565b60006113b3602283610b9e565b91506113be82611357565b604082019050919050565b600060208201905081810360008301526113e2816113a6565b905091905056fea26469706673582212205f9a4e6b4c1265e97db178251d69a806aa2c4d48f846cf1e2367e2daccf99cd664736f6c63430008130033",
  "immutableReferences": {},
  "source": "// SPDX-License-Identifier: MIT \r\npragma solidity ^0.8.19;\r\n\r\ncontract Voting {\r\n    struct Candidate {\r\n        uint id;\r\n        string name;\r\n        string party; \r\n        uint voteCount;\r\n    }\r\n\r\n    mapping (uint => Candidate) public candidates;\r\n    mapping (address => bool) public voters;\r\n\r\n    uint public countCandidates;\r\n    uint256 public votingEnd;\r\n    uint256 public votingStart;\r\n\r\n    function addCandidate(string memory name, string memory party) public returns(uint) {\r\n        countCandidates++;\r\n        candidates[countCandidates] = Candidate(countCandidates, name, party, 0);\r\n        return countCandidates;\r\n    }\r\n   \r\n    function vote(uint candidateId) public {\r\n        require(!voters[msg.sender], \"You have already voted.\"); // Corrected variable name\r\n        require(candidateId > 0 && candidateId <= countCandidates, \"Invalid candidate ID.\"); // Corrected variable name\r\n        require(block.timestamp >= votingStart && block.timestamp <= votingEnd, \"Voting is not active.\");\r\n        \r\n        voters[msg.sender] = true; // Corrected variable name\r\n        candidates[candidateId].voteCount += 1;\r\n    }\r\n      \r\n    function checkVote() public view returns(bool){\r\n        return voters[msg.sender];\r\n    }\r\n       \r\n    function getCountCandidates() public view returns(uint) {\r\n        return countCandidates;\r\n    }\r\n\r\n    function getCandidate(uint candidateID) public view returns (uint, string memory, string memory, uint) {\r\n        return (candidateID, candidates[candidateID].name, candidates[candidateID].party, candidates[candidateID].voteCount);\r\n    }\r\n\r\n    function setDates(uint256 _startDate, uint256 _endDate) public {\r\n        require(votingEnd == 0 && votingStart == 0, \"Voting dates have already been set.\"); // Prevent resetting\r\n        require(_startDate + 1000000 > block.timestamp, \"Start date must be in the future.\");\r\n        require(_endDate > _startDate, \"End date must be after start date.\");\r\n        \r\n        votingStart = _startDate;\r\n        votingEnd = _endDate;\r\n    }\r\n\r\n    function getDates() public view returns (uint256, uint256) {\r\n        return (votingStart, votingEnd);\r\n    }\r\n}\r\n",
  "sourcePath": "C:\\Users\\HP 0036\\Desktop\\project-soc\\contracts\\voting.sol",
  "compiler": {
    "name": "solc",
    "version": "0.8.19+commit.7dd6d404.Emscripten.clang"
  },
  "schemaVersion": "3.4.16",
  "updatedAt": "2024-09-23T06:49:35.018Z",
  "networkType": "ethereum",
  "devdoc": {
    "kind": "dev",
    "methods": {},
    "version": 1
  },
  "userdoc": {
    "kind": "user",
    "methods": {},
    "version": 1
  }
}